:1000000000308A008A280000831606118312061128
:100010008316061283120612831686108312861424
:1000200083168611831286110034831606118312FB
:10003000061583160612831206168316861083127F
:10004000861083168611831286110034831686105B
:100050008312861483168611831286158316061161
:1000600083120611831606128312061200348316B9
:100070000514831205184228831685148312851CE3
:1000800042280420831605148312051C5C2883165D
:100090008514831285185C288316061183120611B5
:1000A0008316061283120612831686108312861098
:1000B0008316861183128615831605148312051C78
:1000C0006828831685148312851C682815205C28EF
:1000D0008316051483120518742883168514831259
:1000E000851874282620682893281030840000087A
:1000F0000319892801308D008C018C0B7D288D0B14
:100100007C284A308C008C0B832800000000800B78
:100110007A28003484011F3083051F3065000130C8
:100120006600860137288316051583120519B32842
:10013000262004308F00C830900075208F0B9B283C
:10014000042004308F00FA30900075208F0BA32814
:100150008316051483120518B2288316851483129A
:0A016000851CA828152092286300D2
:00000001FF
